{
  "_format": "hh-sol-artifact-1",
  "contractName": "DataConsumerV3",
  "sourceName": "contracts/DataConsumerV3.sol",
  "abi": [
    {
      "inputs": [],
      "stateMutability": "nonpayable",
      "type": "constructor"
    },
    {
      "inputs": [
        {
          "internalType": "string",
          "name": "pair",
          "type": "string"
        }
      ],
      "name": "getChainlinkDataFeedLatestAnswer",
      "outputs": [
        {
          "internalType": "int256",
          "name": "",
          "type": "int256"
        }
      ],
      "stateMutability": "view",
      "type": "function"
    }
  ],
  "bytecode": "0x608060405234801561001057600080fd5b50731b44f3514812d835eb1bdb0acb33d3fa3351ee43600060405161003490610229565b908152602001604051809103902060006101000a81548173ffffffffffffffffffffffffffffffffffffffff021916908373ffffffffffffffffffffffffffffffffffffffff16021790555073694aa1769357215de4fac081bf1f309adc32530660006040516100a39061028a565b908152602001604051809103902060006101000a81548173ffffffffffffffffffffffffffffffffffffffff021916908373ffffffffffffffffffffffffffffffffffffffff16021790555073c59e3633baac79493d908e63626716e204a45edf6000604051610112906102eb565b908152602001604051809103902060006101000a81548173ffffffffffffffffffffffffffffffffffffffff021916908373ffffffffffffffffffffffffffffffffffffffff160217905550735fb1616f78da7afc9ff79e0371741a747d2a7f2260006040516101819061034c565b908152602001604051809103902060006101000a81548173ffffffffffffffffffffffffffffffffffffffff021916908373ffffffffffffffffffffffffffffffffffffffff160217905550610361565b600081905092915050565b7f4254432f55534400000000000000000000000000000000000000000000000000600082015250565b60006102136007836101d2565b915061021e826101dd565b600782019050919050565b600061023482610206565b9150819050919050565b7f4554482f55534400000000000000000000000000000000000000000000000000600082015250565b60006102746007836101d2565b915061027f8261023e565b600782019050919050565b600061029582610267565b9150819050919050565b7f4c494e4b2f555344000000000000000000000000000000000000000000000000600082015250565b60006102d56008836101d2565b91506102e08261029f565b600882019050919050565b60006102f6826102c8565b9150819050919050565b7f4254432f45544800000000000000000000000000000000000000000000000000600082015250565b60006103366007836101d2565b915061034182610300565b600782019050919050565b600061035782610329565b9150819050919050565b610622806103706000396000f3fe608060405234801561001057600080fd5b506004361061002b5760003560e01c80636b33e35414610030575b600080fd5b61004a60048036038101906100459190610325565b610060565b6040516100579190610387565b60405180910390f35b60008073ffffffffffffffffffffffffffffffffffffffff166000836040516100899190610413565b908152602001604051809103902060009054906101000a900473ffffffffffffffffffffffffffffffffffffffff1673ffffffffffffffffffffffffffffffffffffffff160361010e576040517f08c379a0000000000000000000000000000000000000000000000000000000008152600401610105906104ad565b60405180910390fd5b6000808360405161011f9190610413565b908152602001604051809103902060009054906101000a900473ffffffffffffffffffffffffffffffffffffffff1673ffffffffffffffffffffffffffffffffffffffff1663feaf968c6040518163ffffffff1660e01b815260040160a060405180830381865afa158015610198573d6000803e3d6000fd5b505050506040513d601f19601f820116820180604052508101906101bc9190610571565b50505091505080915050919050565b6000604051905090565b600080fd5b600080fd5b600080fd5b600080fd5b6000601f19601f8301169050919050565b7f4e487b7100000000000000000000000000000000000000000000000000000000600052604160045260246000fd5b610232826101e9565b810181811067ffffffffffffffff82111715610251576102506101fa565b5b80604052505050565b60006102646101cb565b90506102708282610229565b919050565b600067ffffffffffffffff8211156102905761028f6101fa565b5b610299826101e9565b9050602081019050919050565b82818337600083830152505050565b60006102c86102c384610275565b61025a565b9050828152602081018484840111156102e4576102e36101e4565b5b6102ef8482856102a6565b509392505050565b600082601f83011261030c5761030b6101df565b5b813561031c8482602086016102b5565b91505092915050565b60006020828403121561033b5761033a6101d5565b5b600082013567ffffffffffffffff811115610359576103586101da565b5b610365848285016102f7565b91505092915050565b6000819050919050565b6103818161036e565b82525050565b600060208201905061039c6000830184610378565b92915050565b600081519050919050565b600081905092915050565b60005b838110156103d65780820151818401526020810190506103bb565b60008484015250505050565b60006103ed826103a2565b6103f781856103ad565b93506104078185602086016103b8565b80840191505092915050565b600061041f82846103e2565b915081905092915050565b600082825260208201905092915050565b7f446174612066656564206e6f7420617661696c61626c6520666f72207468697360008201527f2070616972000000000000000000000000000000000000000000000000000000602082015250565b600061049760258361042a565b91506104a28261043b565b604082019050919050565b600060208201905081810360008301526104c68161048a565b9050919050565b600069ffffffffffffffffffff82169050919050565b6104ec816104cd565b81146104f757600080fd5b50565b600081519050610509816104e3565b92915050565b6105188161036e565b811461052357600080fd5b50565b6000815190506105358161050f565b92915050565b6000819050919050565b61054e8161053b565b811461055957600080fd5b50565b60008151905061056b81610545565b92915050565b600080600080600060a0868803121561058d5761058c6101d5565b5b600061059b888289016104fa565b95505060206105ac88828901610526565b94505060406105bd8882890161055c565b93505060606105ce8882890161055c565b92505060806105df888289016104fa565b915050929550929590935056fea264697066735822122051a52c3088256fd1aadd405e2295bb63351f7c0782f7903433ecd05fea9ab7f864736f6c63430008130033",
  "linkReferences": {},
  "deployedLinkReferences": {}
}